{
    "_format": "hh-sol-artifact-1",
    "contractName": "Chungus",
    "sourceName": "contracts/Chungus.sol",
    "abi": [
        {
            "inputs": [
                {
                    "internalType": "string",
                    "name": "name",
                    "type": "string"
                },
                {
                    "internalType": "string",
                    "name": "symbol",
                    "type": "string"
                }
            ],
            "stateMutability": "nonpayable",
            "type": "constructor"
        },
        {
            "anonymous": false,
            "inputs": [
                {
                    "indexed": true,
                    "internalType": "address",
                    "name": "owner",
                    "type": "address"
                },
                {
                    "indexed": true,
                    "internalType": "address",
                    "name": "approved",
                    "type": "address"
                },
                {
                    "indexed": true,
                    "internalType": "uint256",
                    "name": "tokenId",
                    "type": "uint256"
                }
            ],
            "name": "Approval",
            "type": "event"
        },
        {
            "anonymous": false,
            "inputs": [
                {
                    "indexed": true,
                    "internalType": "address",
                    "name": "owner",
                    "type": "address"
                },
                {
                    "indexed": true,
                    "internalType": "address",
                    "name": "operator",
                    "type": "address"
                },
                {
                    "indexed": false,
                    "internalType": "bool",
                    "name": "approved",
                    "type": "bool"
                }
            ],
            "name": "ApprovalForAll",
            "type": "event"
        },
        {
            "anonymous": false,
            "inputs": [
                {
                    "indexed": true,
                    "internalType": "address",
                    "name": "previousOwner",
                    "type": "address"
                },
                {
                    "indexed": true,
                    "internalType": "address",
                    "name": "newOwner",
                    "type": "address"
                }
            ],
            "name": "OwnershipTransferred",
            "type": "event"
        },
        {
            "anonymous": false,
            "inputs": [
                {
                    "indexed": true,
                    "internalType": "address",
                    "name": "from",
                    "type": "address"
                },
                {
                    "indexed": true,
                    "internalType": "address",
                    "name": "to",
                    "type": "address"
                },
                {
                    "indexed": true,
                    "internalType": "uint256",
                    "name": "tokenId",
                    "type": "uint256"
                }
            ],
            "name": "Transfer",
            "type": "event"
        },
        {
            "inputs": [
                {
                    "internalType": "address",
                    "name": "to",
                    "type": "address"
                },
                {
                    "internalType": "uint256",
                    "name": "tokenId",
                    "type": "uint256"
                }
            ],
            "name": "approve",
            "outputs": [],
            "stateMutability": "nonpayable",
            "type": "function"
        },
        {
            "inputs": [
                {
                    "internalType": "address",
                    "name": "owner",
                    "type": "address"
                }
            ],
            "name": "balanceOf",
            "outputs": [
                {
                    "internalType": "uint256",
                    "name": "",
                    "type": "uint256"
                }
            ],
            "stateMutability": "view",
            "type": "function"
        },
        {
            "inputs": [
                {
                    "internalType": "uint256",
                    "name": "tokenId",
                    "type": "uint256"
                }
            ],
            "name": "getApproved",
            "outputs": [
                {
                    "internalType": "address",
                    "name": "",
                    "type": "address"
                }
            ],
            "stateMutability": "view",
            "type": "function"
        },
        {
            "inputs": [],
            "name": "getNFTs",
            "outputs": [
                {
                    "internalType": "uint256[]",
                    "name": "",
                    "type": "uint256[]"
                }
            ],
            "stateMutability": "view",
            "type": "function"
        },
        {
            "inputs": [
                {
                    "internalType": "address",
                    "name": "owner",
                    "type": "address"
                },
                {
                    "internalType": "address",
                    "name": "operator",
                    "type": "address"
                }
            ],
            "name": "isApprovedForAll",
            "outputs": [
                {
                    "internalType": "bool",
                    "name": "",
                    "type": "bool"
                }
            ],
            "stateMutability": "view",
            "type": "function"
        },
        {
            "inputs": [
                {
                    "internalType": "address",
                    "name": "owner",
                    "type": "address"
                },
                {
                    "internalType": "string",
                    "name": "data",
                    "type": "string"
                }
            ],
            "name": "mint",
            "outputs": [
                {
                    "internalType": "uint256",
                    "name": "",
                    "type": "uint256"
                }
            ],
            "stateMutability": "nonpayable",
            "type": "function"
        },
        {
            "inputs": [],
            "name": "name",
            "outputs": [
                {
                    "internalType": "string",
                    "name": "",
                    "type": "string"
                }
            ],
            "stateMutability": "view",
            "type": "function"
        },
        {
            "inputs": [],
            "name": "owner",
            "outputs": [
                {
                    "internalType": "address",
                    "name": "",
                    "type": "address"
                }
            ],
            "stateMutability": "view",
            "type": "function"
        },
        {
            "inputs": [
                {
                    "internalType": "uint256",
                    "name": "tokenId",
                    "type": "uint256"
                }
            ],
            "name": "ownerOf",
            "outputs": [
                {
                    "internalType": "address",
                    "name": "",
                    "type": "address"
                }
            ],
            "stateMutability": "view",
            "type": "function"
        },
        {
            "inputs": [],
            "name": "renounceOwnership",
            "outputs": [],
            "stateMutability": "nonpayable",
            "type": "function"
        },
        {
            "inputs": [
                {
                    "internalType": "address",
                    "name": "from",
                    "type": "address"
                },
                {
                    "internalType": "address",
                    "name": "to",
                    "type": "address"
                },
                {
                    "internalType": "uint256",
                    "name": "tokenId",
                    "type": "uint256"
                }
            ],
            "name": "safeTransferFrom",
            "outputs": [],
            "stateMutability": "nonpayable",
            "type": "function"
        },
        {
            "inputs": [
                {
                    "internalType": "address",
                    "name": "from",
                    "type": "address"
                },
                {
                    "internalType": "address",
                    "name": "to",
                    "type": "address"
                },
                {
                    "internalType": "uint256",
                    "name": "tokenId",
                    "type": "uint256"
                },
                {
                    "internalType": "bytes",
                    "name": "_data",
                    "type": "bytes"
                }
            ],
            "name": "safeTransferFrom",
            "outputs": [],
            "stateMutability": "nonpayable",
            "type": "function"
        },
        {
            "inputs": [
                {
                    "internalType": "address",
                    "name": "operator",
                    "type": "address"
                },
                {
                    "internalType": "bool",
                    "name": "approved",
                    "type": "bool"
                }
            ],
            "name": "setApprovalForAll",
            "outputs": [],
            "stateMutability": "nonpayable",
            "type": "function"
        },
        {
            "inputs": [
                {
                    "internalType": "bytes4",
                    "name": "interfaceId",
                    "type": "bytes4"
                }
            ],
            "name": "supportsInterface",
            "outputs": [
                {
                    "internalType": "bool",
                    "name": "",
                    "type": "bool"
                }
            ],
            "stateMutability": "view",
            "type": "function"
        },
        {
            "inputs": [],
            "name": "symbol",
            "outputs": [
                {
                    "internalType": "string",
                    "name": "",
                    "type": "string"
                }
            ],
            "stateMutability": "view",
            "type": "function"
        },
        {
            "inputs": [
                {
                    "internalType": "uint256",
                    "name": "tokenId",
                    "type": "uint256"
                }
            ],
            "name": "tokenURI",
            "outputs": [
                {
                    "internalType": "string",
                    "name": "",
                    "type": "string"
                }
            ],
            "stateMutability": "view",
            "type": "function"
        },
        {
            "inputs": [
                {
                    "internalType": "address",
                    "name": "from",
                    "type": "address"
                },
                {
                    "internalType": "address",
                    "name": "to",
                    "type": "address"
                },
                {
                    "internalType": "uint256",
                    "name": "tokenId",
                    "type": "uint256"
                }
            ],
            "name": "transferFrom",
            "outputs": [],
            "stateMutability": "nonpayable",
            "type": "function"
        },
        {
            "inputs": [
                {
                    "internalType": "address",
                    "name": "newOwner",
                    "type": "address"
                }
            ],
            "name": "transferOwnership",
            "outputs": [],
            "stateMutability": "nonpayable",
            "type": "function"
        }
    ],
    "bytecode": "0x60806040523480156200001157600080fd5b5060405162003b2038038062003b20833981810160405281019062000037919062000367565b818181600090805190602001906200005192919062000245565b5080600190805190602001906200006a92919062000245565b5050506200008d62000081620000ab60201b60201c565b620000b360201b60201c565b620000a3336200017960201b620010881760201c565b5050620005ac565b600033905090565b6000600760009054906101000a900473ffffffffffffffffffffffffffffffffffffffff16905081600760006101000a81548173ffffffffffffffffffffffffffffffffffffffff021916908373ffffffffffffffffffffffffffffffffffffffff1602179055508173ffffffffffffffffffffffffffffffffffffffff168173ffffffffffffffffffffffffffffffffffffffff167f8be0079c531659141344cd1fd0a4f28419497f9722a3daafe3b4186f6b6457e060405160405180910390a35050565b6200021981604051602401620001909190620003eb565b6040516020818303038152906040527f2c2ecbc2000000000000000000000000000000000000000000000000000000007bffffffffffffffffffffffffffffffffffffffffffffffffffffffff19166020820180517bffffffffffffffffffffffffffffffffffffffffffffffffffffffff83818316178352505050506200021c60201b60201c565b50565b60008151905060006a636f6e736f6c652e6c6f679050602083016000808483855afa5050505050565b8280546200025390620004d1565b90600052602060002090601f016020900481019282620002775760008555620002c3565b82601f106200029257805160ff1916838001178555620002c3565b82800160010185558215620002c3579182015b82811115620002c2578251825591602001919060010190620002a5565b5b509050620002d29190620002d6565b5090565b5b80821115620002f1576000816000905550600101620002d7565b5090565b60006200030c620003068462000431565b62000408565b9050828152602081018484840111156200032557600080fd5b620003328482856200049b565b509392505050565b600082601f8301126200034c57600080fd5b81516200035e848260208601620002f5565b91505092915050565b600080604083850312156200037b57600080fd5b600083015167ffffffffffffffff8111156200039657600080fd5b620003a4858286016200033a565b925050602083015167ffffffffffffffff811115620003c257600080fd5b620003d0858286016200033a565b9150509250929050565b620003e58162000467565b82525050565b6000602082019050620004026000830184620003da565b92915050565b60006200041462000427565b905062000422828262000507565b919050565b6000604051905090565b600067ffffffffffffffff8211156200044f576200044e6200056c565b5b6200045a826200059b565b9050602081019050919050565b600062000474826200047b565b9050919050565b600073ffffffffffffffffffffffffffffffffffffffff82169050919050565b60005b83811015620004bb5780820151818401526020810190506200049e565b83811115620004cb576000848401525b50505050565b60006002820490506001821680620004ea57607f821691505b602082108114156200050157620005006200053d565b5b50919050565b62000512826200059b565b810181811067ffffffffffffffff821117156200053457620005336200056c565b5b80604052505050565b7f4e487b7100000000000000000000000000000000000000000000000000000000600052602260045260246000fd5b7f4e487b7100000000000000000000000000000000000000000000000000000000600052604160045260246000fd5b6000601f19601f8301169050919050565b61356480620005bc6000396000f3fe608060405234801561001057600080fd5b50600436106101165760003560e01c8063715018a6116100a2578063b88d4fde11610071578063b88d4fde146102cd578063c87b56dd146102e9578063d0def52114610319578063e985e9c514610349578063f2fde38b1461037957610116565b8063715018a61461026b5780638da5cb5b1461027557806395d89b4114610293578063a22cb465146102b157610116565b8063227212f2116100e9578063227212f2146101b557806323b872dd146101d357806342842e0e146101ef5780636352211e1461020b57806370a082311461023b57610116565b806301ffc9a71461011b57806306fdde031461014b578063081812fc14610169578063095ea7b314610199575b600080fd5b61013560048036038101906101309190612433565b610395565b6040516101429190612926565b60405180910390f35b610153610477565b6040516101609190612941565b60405180910390f35b610183600480360381019061017e9190612485565b610509565b604051610190919061289d565b60405180910390f35b6101b360048036038101906101ae91906123f7565b61058e565b005b6101bd6106a6565b6040516101ca9190612904565b60405180910390f35b6101ed60048036038101906101e8919061229d565b6108bb565b005b6102096004803603810190610204919061229d565b61091b565b005b61022560048036038101906102209190612485565b61093b565b604051610232919061289d565b60405180910390f35b61025560048036038101906102509190612238565b6109ed565b6040516102629190612ba3565b60405180910390f35b610273610aa5565b005b61027d610b2d565b60405161028a919061289d565b60405180910390f35b61029b610b57565b6040516102a89190612941565b60405180910390f35b6102cb60048036038101906102c69190612367565b610be9565b005b6102e760048036038101906102e291906122ec565b610bff565b005b61030360048036038101906102fe9190612485565b610c61565b6040516103109190612941565b60405180910390f35b610333600480360381019061032e91906123a3565b610db3565b6040516103409190612ba3565b60405180910390f35b610363600480360381019061035e9190612261565b610efc565b6040516103709190612926565b60405180910390f35b610393600480360381019061038e9190612238565b610f90565b005b60007f80ac58cd000000000000000000000000000000000000000000000000000000007bffffffffffffffffffffffffffffffffffffffffffffffffffffffff1916827bffffffffffffffffffffffffffffffffffffffffffffffffffffffff1916148061046057507f5b5e139f000000000000000000000000000000000000000000000000000000007bffffffffffffffffffffffffffffffffffffffffffffffffffffffff1916827bffffffffffffffffffffffffffffffffffffffffffffffffffffffff1916145b80610470575061046f82611121565b5b9050919050565b60606000805461048690612e32565b80601f01602080910402602001604051908101604052809291908181526020018280546104b290612e32565b80156104ff5780601f106104d4576101008083540402835291602001916104ff565b820191906000526020600020905b8154815290600101906020018083116104e257829003601f168201915b5050505050905090565b60006105148261118b565b610553576040517f08c379a000000000000000000000000000000000000000000000000000000000815260040161054a90612ae3565b60405180910390fd5b6004600083815260200190815260200160002060009054906101000a900473ffffffffffffffffffffffffffffffffffffffff169050919050565b60006105998261093b565b90508073ffffffffffffffffffffffffffffffffffffffff168373ffffffffffffffffffffffffffffffffffffffff16141561060a576040517f08c379a000000000000000000000000000000000000000000000000000000000815260040161060190612b63565b60405180910390fd5b8073ffffffffffffffffffffffffffffffffffffffff166106296111f7565b73ffffffffffffffffffffffffffffffffffffffff1614806106585750610657816106526111f7565b610efc565b5b610697576040517f08c379a000000000000000000000000000000000000000000000000000000000815260040161068e90612a23565b60405180910390fd5b6106a183836111ff565b505050565b60606000600960003373ffffffffffffffffffffffffffffffffffffffff1673ffffffffffffffffffffffffffffffffffffffff1681526020019081526020016000205467ffffffffffffffff811115610729577f4e487b7100000000000000000000000000000000000000000000000000000000600052604160045260246000fd5b6040519080825280602002602001820160405280156107575781602001602082028036833780820191505090505b50905060006107a4600960003373ffffffffffffffffffffffffffffffffffffffff1673ffffffffffffffffffffffffffffffffffffffff168152602001908152602001600020546112b8565b6107ad33611088565b6000600190505b6107be6008611351565b811115801561080b5750600960003373ffffffffffffffffffffffffffffffffffffffff1673ffffffffffffffffffffffffffffffffffffffff1681526020019081526020016000205482105b156108b2573373ffffffffffffffffffffffffffffffffffffffff166108308261093b565b73ffffffffffffffffffffffffffffffffffffffff16141561089f578083838061085990612e95565b945081518110610892577f4e487b7100000000000000000000000000000000000000000000000000000000600052603260045260246000fd5b6020026020010181815250505b80806108aa90612e95565b9150506107b4565b50819250505090565b6108cc6108c66111f7565b8261135f565b61090b576040517f08c379a000000000000000000000000000000000000000000000000000000000815260040161090290612b83565b60405180910390fd5b61091683838361143d565b505050565b61093683838360405180602001604052806000815250610bff565b505050565b6000806002600084815260200190815260200160002060009054906101000a900473ffffffffffffffffffffffffffffffffffffffff169050600073ffffffffffffffffffffffffffffffffffffffff168173ffffffffffffffffffffffffffffffffffffffff1614156109e4576040517f08c379a00000000000000000000000000000000000000000000000000000000081526004016109db90612a63565b60405180910390fd5b80915050919050565b60008073ffffffffffffffffffffffffffffffffffffffff168273ffffffffffffffffffffffffffffffffffffffff161415610a5e576040517f08c379a0000000000000000000000000000000000000000000000000000000008152600401610a5590612a43565b60405180910390fd5b600360008373ffffffffffffffffffffffffffffffffffffffff1673ffffffffffffffffffffffffffffffffffffffff168152602001908152602001600020549050919050565b610aad6111f7565b73ffffffffffffffffffffffffffffffffffffffff16610acb610b2d565b73ffffffffffffffffffffffffffffffffffffffff1614610b21576040517f08c379a0000000000000000000000000000000000000000000000000000000008152600401610b1890612b03565b60405180910390fd5b610b2b6000611699565b565b6000600760009054906101000a900473ffffffffffffffffffffffffffffffffffffffff16905090565b606060018054610b6690612e32565b80601f0160208091040260200160405190810160405280929190818152602001828054610b9290612e32565b8015610bdf5780601f10610bb457610100808354040283529160200191610bdf565b820191906000526020600020905b815481529060010190602001808311610bc257829003601f168201915b5050505050905090565b610bfb610bf46111f7565b838361175f565b5050565b610c10610c0a6111f7565b8361135f565b610c4f576040517f08c379a0000000000000000000000000000000000000000000000000000000008152600401610c4690612b83565b60405180910390fd5b610c5b848484846118cc565b50505050565b6060610c6c8261118b565b610cab576040517f08c379a0000000000000000000000000000000000000000000000000000000008152600401610ca290612ac3565b60405180910390fd5b6000600660008481526020019081526020016000208054610ccb90612e32565b80601f0160208091040260200160405190810160405280929190818152602001828054610cf790612e32565b8015610d445780601f10610d1957610100808354040283529160200191610d44565b820191906000526020600020905b815481529060010190602001808311610d2757829003601f168201915b505050505090506000610d55611928565b9050600081511415610d6b578192505050610dae565b600082511115610da0578082604051602001610d88929190612879565b60405160208183030381529060405292505050610dae565b610da98461193f565b925050505b919050565b6000610dbd6111f7565b73ffffffffffffffffffffffffffffffffffffffff16610ddb610b2d565b73ffffffffffffffffffffffffffffffffffffffff1614610e31576040517f08c379a0000000000000000000000000000000000000000000000000000000008152600401610e2890612b03565b60405180910390fd5b610e3b60086119e6565b6000610e476008611351565b9050610e5384826119fc565b610e5d8184611bca565b6001600960008673ffffffffffffffffffffffffffffffffffffffff1673ffffffffffffffffffffffffffffffffffffffff1681526020019081526020016000206000828254610ead9190612cc1565b92505081905550610ef26040518060400160405280601781526020017f6e6674207375636365737366756c6c79206d696e746564000000000000000000815250611c3e565b8091505092915050565b6000600560008473ffffffffffffffffffffffffffffffffffffffff1673ffffffffffffffffffffffffffffffffffffffff16815260200190815260200160002060008373ffffffffffffffffffffffffffffffffffffffff1673ffffffffffffffffffffffffffffffffffffffff16815260200190815260200160002060009054906101000a900460ff16905092915050565b610f986111f7565b73ffffffffffffffffffffffffffffffffffffffff16610fb6610b2d565b73ffffffffffffffffffffffffffffffffffffffff161461100c576040517f08c379a000000000000000000000000000000000000000000000000000000000815260040161100390612b03565b60405180910390fd5b600073ffffffffffffffffffffffffffffffffffffffff168173ffffffffffffffffffffffffffffffffffffffff16141561107c576040517f08c379a000000000000000000000000000000000000000000000000000000000815260040161107390612983565b60405180910390fd5b61108581611699565b50565b61111e8160405160240161109c919061289d565b6040516020818303038152906040527f2c2ecbc2000000000000000000000000000000000000000000000000000000007bffffffffffffffffffffffffffffffffffffffffffffffffffffffff19166020820180517bffffffffffffffffffffffffffffffffffffffffffffffffffffffff8381831617835250505050611cd7565b50565b60007f01ffc9a7000000000000000000000000000000000000000000000000000000007bffffffffffffffffffffffffffffffffffffffffffffffffffffffff1916827bffffffffffffffffffffffffffffffffffffffffffffffffffffffff1916149050919050565b60008073ffffffffffffffffffffffffffffffffffffffff166002600084815260200190815260200160002060009054906101000a900473ffffffffffffffffffffffffffffffffffffffff1673ffffffffffffffffffffffffffffffffffffffff1614159050919050565b600033905090565b816004600083815260200190815260200160002060006101000a81548173ffffffffffffffffffffffffffffffffffffffff021916908373ffffffffffffffffffffffffffffffffffffffff160217905550808273ffffffffffffffffffffffffffffffffffffffff166112728361093b565b73ffffffffffffffffffffffffffffffffffffffff167f8c5be1e5ebec7d5bd14f71427d1e84f3dd0314c0f7b2291e5b200ac8c7c3b92560405160405180910390a45050565b61134e816040516024016112cc9190612ba3565b6040516020818303038152906040527ff5b1bba9000000000000000000000000000000000000000000000000000000007bffffffffffffffffffffffffffffffffffffffffffffffffffffffff19166020820180517bffffffffffffffffffffffffffffffffffffffffffffffffffffffff8381831617835250505050611cd7565b50565b600081600001549050919050565b600061136a8261118b565b6113a9576040517f08c379a00000000000000000000000000000000000000000000000000000000081526004016113a090612a03565b60405180910390fd5b60006113b48361093b565b90508073ffffffffffffffffffffffffffffffffffffffff168473ffffffffffffffffffffffffffffffffffffffff16148061142357508373ffffffffffffffffffffffffffffffffffffffff1661140b84610509565b73ffffffffffffffffffffffffffffffffffffffff16145b8061143457506114338185610efc565b5b91505092915050565b8273ffffffffffffffffffffffffffffffffffffffff1661145d8261093b565b73ffffffffffffffffffffffffffffffffffffffff16146114b3576040517f08c379a00000000000000000000000000000000000000000000000000000000081526004016114aa90612b23565b60405180910390fd5b600073ffffffffffffffffffffffffffffffffffffffff168273ffffffffffffffffffffffffffffffffffffffff161415611523576040517f08c379a000000000000000000000000000000000000000000000000000000000815260040161151a906129c3565b60405180910390fd5b61152e838383611d00565b6115396000826111ff565b6001600360008573ffffffffffffffffffffffffffffffffffffffff1673ffffffffffffffffffffffffffffffffffffffff16815260200190815260200160002060008282546115899190612d48565b925050819055506001600360008473ffffffffffffffffffffffffffffffffffffffff1673ffffffffffffffffffffffffffffffffffffffff16815260200190815260200160002060008282546115e09190612cc1565b92505081905550816002600083815260200190815260200160002060006101000a81548173ffffffffffffffffffffffffffffffffffffffff021916908373ffffffffffffffffffffffffffffffffffffffff160217905550808273ffffffffffffffffffffffffffffffffffffffff168473ffffffffffffffffffffffffffffffffffffffff167fddf252ad1be2c89b69c2b068fc378daa952ba7f163c4a11628f55a4df523b3ef60405160405180910390a4505050565b6000600760009054906101000a900473ffffffffffffffffffffffffffffffffffffffff16905081600760006101000a81548173ffffffffffffffffffffffffffffffffffffffff021916908373ffffffffffffffffffffffffffffffffffffffff1602179055508173ffffffffffffffffffffffffffffffffffffffff168173ffffffffffffffffffffffffffffffffffffffff167f8be0079c531659141344cd1fd0a4f28419497f9722a3daafe3b4186f6b6457e060405160405180910390a35050565b8173ffffffffffffffffffffffffffffffffffffffff168373ffffffffffffffffffffffffffffffffffffffff1614156117ce576040517f08c379a00000000000000000000000000000000000000000000000000000000081526004016117c5906129e3565b60405180910390fd5b80600560008573ffffffffffffffffffffffffffffffffffffffff1673ffffffffffffffffffffffffffffffffffffffff16815260200190815260200160002060008473ffffffffffffffffffffffffffffffffffffffff1673ffffffffffffffffffffffffffffffffffffffff16815260200190815260200160002060006101000a81548160ff0219169083151502179055508173ffffffffffffffffffffffffffffffffffffffff168373ffffffffffffffffffffffffffffffffffffffff167f17307eab39ab6107e8899845ad3d59bd9653f200f220920489ca2b5937696c31836040516118bf9190612926565b60405180910390a3505050565b6118d784848461143d565b6118e384848484611d05565b611922576040517f08c379a000000000000000000000000000000000000000000000000000000000815260040161191990612963565b60405180910390fd5b50505050565b606060405180602001604052806000815250905090565b606061194a8261118b565b611989576040517f08c379a000000000000000000000000000000000000000000000000000000000815260040161198090612b43565b60405180910390fd5b6000611993611928565b905060008151116119b357604051806020016040528060008152506119de565b806119bd84611e9c565b6040516020016119ce929190612879565b6040516020818303038152906040525b915050919050565b6001816000016000828254019250508190555050565b600073ffffffffffffffffffffffffffffffffffffffff168273ffffffffffffffffffffffffffffffffffffffff161415611a6c576040517f08c379a0000000000000000000000000000000000000000000000000000000008152600401611a6390612aa3565b60405180910390fd5b611a758161118b565b15611ab5576040517f08c379a0000000000000000000000000000000000000000000000000000000008152600401611aac906129a3565b60405180910390fd5b611ac160008383611d00565b6001600360008473ffffffffffffffffffffffffffffffffffffffff1673ffffffffffffffffffffffffffffffffffffffff1681526020019081526020016000206000828254611b119190612cc1565b92505081905550816002600083815260200190815260200160002060006101000a81548173ffffffffffffffffffffffffffffffffffffffff021916908373ffffffffffffffffffffffffffffffffffffffff160217905550808273ffffffffffffffffffffffffffffffffffffffff16600073ffffffffffffffffffffffffffffffffffffffff167fddf252ad1be2c89b69c2b068fc378daa952ba7f163c4a11628f55a4df523b3ef60405160405180910390a45050565b611bd38261118b565b611c12576040517f08c379a0000000000000000000000000000000000000000000000000000000008152600401611c0990612a83565b60405180910390fd5b80600660008481526020019081526020016000209080519060200190611c3992919061205c565b505050565b611cd481604051602401611c529190612941565b6040516020818303038152906040527f41304fac000000000000000000000000000000000000000000000000000000007bffffffffffffffffffffffffffffffffffffffffffffffffffffffff19166020820180517bffffffffffffffffffffffffffffffffffffffffffffffffffffffff8381831617835250505050611cd7565b50565b60008151905060006a636f6e736f6c652e6c6f679050602083016000808483855afa5050505050565b505050565b6000611d268473ffffffffffffffffffffffffffffffffffffffff16612049565b15611e8f578373ffffffffffffffffffffffffffffffffffffffff1663150b7a02611d4f6111f7565b8786866040518563ffffffff1660e01b8152600401611d7194939291906128b8565b602060405180830381600087803b158015611d8b57600080fd5b505af1925050508015611dbc57506040513d601f19601f82011682018060405250810190611db9919061245c565b60015b611e3f573d8060008114611dec576040519150601f19603f3d011682016040523d82523d6000602084013e611df1565b606091505b50600081511415611e37576040517f08c379a0000000000000000000000000000000000000000000000000000000008152600401611e2e90612963565b60405180910390fd5b805181602001fd5b63150b7a0260e01b7bffffffffffffffffffffffffffffffffffffffffffffffffffffffff1916817bffffffffffffffffffffffffffffffffffffffffffffffffffffffff191614915050611e94565b600190505b949350505050565b60606000821415611ee4576040518060400160405280600181526020017f30000000000000000000000000000000000000000000000000000000000000008152509050612044565b600082905060005b60008214611f16578080611eff90612e95565b915050600a82611f0f9190612d17565b9150611eec565b60008167ffffffffffffffff811115611f58577f4e487b7100000000000000000000000000000000000000000000000000000000600052604160045260246000fd5b6040519080825280601f01601f191660200182016040528015611f8a5781602001600182028036833780820191505090505b5090505b6000851461203d57600182611fa39190612d48565b9150600a85611fb29190612ede565b6030611fbe9190612cc1565b60f81b818381518110611ffa577f4e487b7100000000000000000000000000000000000000000000000000000000600052603260045260246000fd5b60200101907effffffffffffffffffffffffffffffffffffffffffffffffffffffffffffff1916908160001a905350600a856120369190612d17565b9450611f8e565b8093505050505b919050565b600080823b905060008111915050919050565b82805461206890612e32565b90600052602060002090601f01602090048101928261208a57600085556120d1565b82601f106120a357805160ff19168380011785556120d1565b828001600101855582156120d1579182015b828111156120d05782518255916020019190600101906120b5565b5b5090506120de91906120e2565b5090565b5b808211156120fb5760008160009055506001016120e3565b5090565b600061211261210d84612be3565b612bbe565b90508281526020810184848401111561212a57600080fd5b612135848285612df0565b509392505050565b600061215061214b84612c14565b612bbe565b90508281526020810184848401111561216857600080fd5b612173848285612df0565b509392505050565b60008135905061218a816134d2565b92915050565b60008135905061219f816134e9565b92915050565b6000813590506121b481613500565b92915050565b6000815190506121c981613500565b92915050565b600082601f8301126121e057600080fd5b81356121f08482602086016120ff565b91505092915050565b600082601f83011261220a57600080fd5b813561221a84826020860161213d565b91505092915050565b60008135905061223281613517565b92915050565b60006020828403121561224a57600080fd5b60006122588482850161217b565b91505092915050565b6000806040838503121561227457600080fd5b60006122828582860161217b565b92505060206122938582860161217b565b9150509250929050565b6000806000606084860312156122b257600080fd5b60006122c08682870161217b565b93505060206122d18682870161217b565b92505060406122e286828701612223565b9150509250925092565b6000806000806080858703121561230257600080fd5b60006123108782880161217b565b94505060206123218782880161217b565b935050604061233287828801612223565b925050606085013567ffffffffffffffff81111561234f57600080fd5b61235b878288016121cf565b91505092959194509250565b6000806040838503121561237a57600080fd5b60006123888582860161217b565b925050602061239985828601612190565b9150509250929050565b600080604083850312156123b657600080fd5b60006123c48582860161217b565b925050602083013567ffffffffffffffff8111156123e157600080fd5b6123ed858286016121f9565b9150509250929050565b6000806040838503121561240a57600080fd5b60006124188582860161217b565b925050602061242985828601612223565b9150509250929050565b60006020828403121561244557600080fd5b6000612453848285016121a5565b91505092915050565b60006020828403121561246e57600080fd5b600061247c848285016121ba565b91505092915050565b60006020828403121561249757600080fd5b60006124a584828501612223565b91505092915050565b60006124ba838361285b565b60208301905092915050565b6124cf81612d7c565b82525050565b60006124e082612c55565b6124ea8185612c83565b93506124f583612c45565b8060005b8381101561252657815161250d88826124ae565b975061251883612c76565b9250506001810190506124f9565b5085935050505092915050565b61253c81612d8e565b82525050565b600061254d82612c60565b6125578185612c94565b9350612567818560208601612dff565b61257081612fcb565b840191505092915050565b600061258682612c6b565b6125908185612ca5565b93506125a0818560208601612dff565b6125a981612fcb565b840191505092915050565b60006125bf82612c6b565b6125c98185612cb6565b93506125d9818560208601612dff565b80840191505092915050565b60006125f2603283612ca5565b91506125fd82612fdc565b604082019050919050565b6000612615602683612ca5565b91506126208261302b565b604082019050919050565b6000612638601c83612ca5565b91506126438261307a565b602082019050919050565b600061265b602483612ca5565b9150612666826130a3565b604082019050919050565b600061267e601983612ca5565b9150612689826130f2565b602082019050919050565b60006126a1602c83612ca5565b91506126ac8261311b565b604082019050919050565b60006126c4603883612ca5565b91506126cf8261316a565b604082019050919050565b60006126e7602a83612ca5565b91506126f2826131b9565b604082019050919050565b600061270a602983612ca5565b915061271582613208565b604082019050919050565b600061272d602e83612ca5565b915061273882613257565b604082019050919050565b6000612750602083612ca5565b915061275b826132a6565b602082019050919050565b6000612773603183612ca5565b915061277e826132cf565b604082019050919050565b6000612796602c83612ca5565b91506127a18261331e565b604082019050919050565b60006127b9602083612ca5565b91506127c48261336d565b602082019050919050565b60006127dc602983612ca5565b91506127e782613396565b604082019050919050565b60006127ff602f83612ca5565b915061280a826133e5565b604082019050919050565b6000612822602183612ca5565b915061282d82613434565b604082019050919050565b6000612845603183612ca5565b915061285082613483565b604082019050919050565b61286481612de6565b82525050565b61287381612de6565b82525050565b600061288582856125b4565b915061289182846125b4565b91508190509392505050565b60006020820190506128b260008301846124c6565b92915050565b60006080820190506128cd60008301876124c6565b6128da60208301866124c6565b6128e7604083018561286a565b81810360608301526128f98184612542565b905095945050505050565b6000602082019050818103600083015261291e81846124d5565b905092915050565b600060208201905061293b6000830184612533565b92915050565b6000602082019050818103600083015261295b818461257b565b905092915050565b6000602082019050818103600083015261297c816125e5565b9050919050565b6000602082019050818103600083015261299c81612608565b9050919050565b600060208201905081810360008301526129bc8161262b565b9050919050565b600060208201905081810360008301526129dc8161264e565b9050919050565b600060208201905081810360008301526129fc81612671565b9050919050565b60006020820190508181036000830152612a1c81612694565b9050919050565b60006020820190508181036000830152612a3c816126b7565b9050919050565b60006020820190508181036000830152612a5c816126da565b9050919050565b60006020820190508181036000830152612a7c816126fd565b9050919050565b60006020820190508181036000830152612a9c81612720565b9050919050565b60006020820190508181036000830152612abc81612743565b9050919050565b60006020820190508181036000830152612adc81612766565b9050919050565b60006020820190508181036000830152612afc81612789565b9050919050565b60006020820190508181036000830152612b1c816127ac565b9050919050565b60006020820190508181036000830152612b3c816127cf565b9050919050565b60006020820190508181036000830152612b5c816127f2565b9050919050565b60006020820190508181036000830152612b7c81612815565b9050919050565b60006020820190508181036000830152612b9c81612838565b9050919050565b6000602082019050612bb8600083018461286a565b92915050565b6000612bc8612bd9565b9050612bd48282612e64565b919050565b6000604051905090565b600067ffffffffffffffff821115612bfe57612bfd612f9c565b5b612c0782612fcb565b9050602081019050919050565b600067ffffffffffffffff821115612c2f57612c2e612f9c565b5b612c3882612fcb565b9050602081019050919050565b6000819050602082019050919050565b600081519050919050565b600081519050919050565b600081519050919050565b6000602082019050919050565b600082825260208201905092915050565b600082825260208201905092915050565b600082825260208201905092915050565b600081905092915050565b6000612ccc82612de6565b9150612cd783612de6565b9250827fffffffffffffffffffffffffffffffffffffffffffffffffffffffffffffffff03821115612d0c57612d0b612f0f565b5b828201905092915050565b6000612d2282612de6565b9150612d2d83612de6565b925082612d3d57612d3c612f3e565b5b828204905092915050565b6000612d5382612de6565b9150612d5e83612de6565b925082821015612d7157612d70612f0f565b5b828203905092915050565b6000612d8782612dc6565b9050919050565b60008115159050919050565b60007fffffffff0000000000000000000000000000000000000000000000000000000082169050919050565b600073ffffffffffffffffffffffffffffffffffffffff82169050919050565b6000819050919050565b82818337600083830152505050565b60005b83811015612e1d578082015181840152602081019050612e02565b83811115612e2c576000848401525b50505050565b60006002820490506001821680612e4a57607f821691505b60208210811415612e5e57612e5d612f6d565b5b50919050565b612e6d82612fcb565b810181811067ffffffffffffffff82111715612e8c57612e8b612f9c565b5b80604052505050565b6000612ea082612de6565b91507fffffffffffffffffffffffffffffffffffffffffffffffffffffffffffffffff821415612ed357612ed2612f0f565b5b600182019050919050565b6000612ee982612de6565b9150612ef483612de6565b925082612f0457612f03612f3e565b5b828206905092915050565b7f4e487b7100000000000000000000000000000000000000000000000000000000600052601160045260246000fd5b7f4e487b7100000000000000000000000000000000000000000000000000000000600052601260045260246000fd5b7f4e487b7100000000000000000000000000000000000000000000000000000000600052602260045260246000fd5b7f4e487b7100000000000000000000000000000000000000000000000000000000600052604160045260246000fd5b6000601f19601f8301169050919050565b7f4552433732313a207472616e7366657220746f206e6f6e20455243373231526560008201527f63656976657220696d706c656d656e7465720000000000000000000000000000602082015250565b7f4f776e61626c653a206e6577206f776e657220697320746865207a65726f206160008201527f6464726573730000000000000000000000000000000000000000000000000000602082015250565b7f4552433732313a20746f6b656e20616c7265616479206d696e74656400000000600082015250565b7f4552433732313a207472616e7366657220746f20746865207a65726f2061646460008201527f7265737300000000000000000000000000000000000000000000000000000000602082015250565b7f4552433732313a20617070726f766520746f2063616c6c657200000000000000600082015250565b7f4552433732313a206f70657261746f7220717565727920666f72206e6f6e657860008201527f697374656e7420746f6b656e0000000000000000000000000000000000000000602082015250565b7f4552433732313a20617070726f76652063616c6c6572206973206e6f74206f7760008201527f6e6572206e6f7220617070726f76656420666f7220616c6c0000000000000000602082015250565b7f4552433732313a2062616c616e636520717565727920666f7220746865207a6560008201527f726f206164647265737300000000000000000000000000000000000000000000602082015250565b7f4552433732313a206f776e657220717565727920666f72206e6f6e657869737460008201527f656e7420746f6b656e0000000000000000000000000000000000000000000000602082015250565b7f45524337323155524953746f726167653a2055524920736574206f66206e6f6e60008201527f6578697374656e7420746f6b656e000000000000000000000000000000000000602082015250565b7f4552433732313a206d696e7420746f20746865207a65726f2061646472657373600082015250565b7f45524337323155524953746f726167653a2055524920717565727920666f722060008201527f6e6f6e6578697374656e7420746f6b656e000000000000000000000000000000602082015250565b7f4552433732313a20617070726f76656420717565727920666f72206e6f6e657860008201527f697374656e7420746f6b656e0000000000000000000000000000000000000000602082015250565b7f4f776e61626c653a2063616c6c6572206973206e6f7420746865206f776e6572600082015250565b7f4552433732313a207472616e73666572206f6620746f6b656e2074686174206960008201527f73206e6f74206f776e0000000000000000000000000000000000000000000000602082015250565b7f4552433732314d657461646174613a2055524920717565727920666f72206e6f60008201527f6e6578697374656e7420746f6b656e0000000000000000000000000000000000602082015250565b7f4552433732313a20617070726f76616c20746f2063757272656e74206f776e6560008201527f7200000000000000000000000000000000000000000000000000000000000000602082015250565b7f4552433732313a207472616e736665722063616c6c6572206973206e6f74206f60008201527f776e6572206e6f7220617070726f766564000000000000000000000000000000602082015250565b6134db81612d7c565b81146134e657600080fd5b50565b6134f281612d8e565b81146134fd57600080fd5b50565b61350981612d9a565b811461351457600080fd5b50565b61352081612de6565b811461352b57600080fd5b5056fea26469706673582212200324b6bfb1b2f9df180c37943a1ebd86bed6744c9b2214682397f2b930467f7064736f6c63430008040033",
    "linkReferences": {},
    "deployedLinkReferences": {}
}